:1000000012C024C023C022C021C020C01FC01EC0F7
:100010001DC01CC01BC01AC019C018C017C016C014
:1000200015C014C013C011241FBECFE5D4E0DEBF3D
:10003000CDBF10E0A0E6B0E0E6E9F2E002C0059036
:100040000D92A236B107D9F7E2D023C1D9CF80FFF4
:1000500002C0929A01C0929881FF02C0939A01C097
:10006000939882FF02C0949A01C0949883FF02C0C3
:10007000959A08959598089580B382FB882780F912
:100080008399826084998460859988600895CF936C
:10009000DF938A988B988C988D98969A919AECDF3A
:1000A00090E1899FE00111249198919AE5DF919860
:1000B0008C2BDF91CF9108959098E9CFCF93C82FE3
:1000C0008A9A8B9A8C9A8D9A9698919A82958F702B
:1000D000BEDF9198919A8C2FBADF9198EDDF87FD62
:1000E000FDCFCF9108959098E9CF909AE7CF909A5D
:1000F000CECFCF93DF93EC018991882311F0F5DF08
:10010000FBCFDF91CF91089590E4699F800D11247A
:100110008068E9CF81E0E7DF8FE99FE00197F1F7A1
:1001200000C00000089582E0DEDF8FE99FE00197C4
:10013000F1F700C000000895CF938A9A8B9A8C9AA9
:100140008D9A899A889A8E9A8FE295E70197F1F7AE
:1001500000C00000909891989698C3E0919A83E02F
:1001600076DF91988FE097E20197F1F700C00000E9
:10017000C150A1F7919A82E06ADF91988FEC97E0E5
:100180000197F1F700C0000088E2ADDF88E0ABDF47
:1001900081E0A9DF86E0A7DF8CE0CF91A4CF80E1EA
:1001A00087BB80E48DB90895779BFECF8FB108950A
:1001B000CF93DF9300D000D01F92CDB7DEB78D83F1
:1001C000A9DF40E250E260E270E049835A836B832A
:1001D0007C834AE050E0BE016F5F7F4F8D8190E0ED
:1001E0001BD08FED8B8360E087E08EDFCE01019620
:1001F00080DF60E08AE088DF80E690E07ADF0F90C1
:100200000F900F900F900F90DF91CF91089594DF92
:10021000C6DFCADFCDDFFDCF4532510518F44230CD
:1002200008F004C0FB011082CB010895BB274A30BF
:1002300031F4992322F4BDE2909581959F4F01C03E
:10024000BB27FB015527AA27880F991FAA1FA417B0
:1002500010F0A41B83955051B9F7A05DAA3308F0A4
:10026000A95DA193009779F7B111B1931192CB01D8
:1002700000C0DC01FC01672F71917723E1F7329711
:1002800004C07C916D9370836291AE17BF07C8F371
:060290000895F894FFCF71
:02029600430023
:00000001FF
