:1000000012C019C018C017C016C015C014C013C044
:1000100012C011C010C00FC00EC00DC00CC00BC06C
:100020000AC009C008C011241FBECFE5D4E0DEBF5E
:10003000CDBFA3D0C3C0E4CF8CE287BB83E58DB92D
:1000400008958FB9779BFECF0895DF92EF92FF92CC
:100050000F931F93CF93DF9300D000D01F92CDB7A3
:10006000DEB7B99A25E023BF12BEC19822B7203A65
:10007000E8F322E023BF12BEC19AB998B19B05C034
:1000800022B72C33D8F380E06BC012BEB19904C004
:1000900022B72436D8F3F7CF12BEB19B04C022B7E3
:1000A0002436D8F3F0CF7E0126E0E20EF11CFE01EB
:1000B000319641E050E060E070E0A7E0B0E012BEB1
:1000C000B19904C022B72634D8F3DDCF12BEB19B5C
:1000D00004C022B72A35D8F3D6CF22B73CEE320F70
:1000E000303178F48A019B010A2E04C0000F111FE1
:1000F000221F331F0A94D2F70095208120232083EA
:1001000011C02C53253108F0BECFD0808A019B014D
:100110000A2E04C0000F111F221F331F0A94D2F7AA
:10012000D02AD082119758F63196EE15FF0529F6A0
:100130002A813981230F3B81230F3C81230F3D818D
:100140002313A1CFFC0181E090E08C0F9D1F04964A
:10015000DE0111962D912193A817B907D9F781E0F7
:100160000F900F900F900F900F90DF91CF911F91F4
:100170000F91FF90EF90DF900895CF93DF9300D021
:1001800000D0CDB7DEB72FEF83ED90E32150804054
:100190009040E1F700C000004FDFCE01019655DF2F
:1001A000882311F08B814DDF2FEF89E698E12150F4
:1001B00080409040E1F700C00000EFCFF894FFCFFF
:00000001FF
